:0400000002002132A7
:03000B000200ED03
:0100130032BA
:03001B000200FDE3
:10007A007508FE750900750A00750B00750C007588
:0B008A000D00750E00750F0002001E37
:03001E0002011AC2
:10009500050AE50A24FD5003750A007402B50A171E
:1000A500E50E249C5011759000C2B3D2B4D2B5E5CB
:1000B5000B90038893F5907401B50A17E50E24F6A5
:1000C5005011759000D2B3C2B4D2B5E50C90038837
:1000D50093F590E50A7010F590D2B3D2B4C2B5E5A8
:1000E5000D90038893F59022C28E758CFE758AFF5C
:1000F50085088DD28ED2B732C28EC2B732AF828F0B
:10010500061FEE70FA22AF828F061FEE60067E781C
:10011500DEFE80F422C2B7758921758CFE758A00D2
:10012500758DFE758B01D2AFD2A9D2ABD28C1200E0
:1001350095750F0075820512010B30B1030201E2BE
:10014500120095050FE50F24015003750F00746427
:10015500B50E0280E5E50F70E1050EAE0E7F007568
:10016500100A8F118E828F83C007C006120316AC4A
:1001750082D006D0078C0D75100A7511008E828FFE
:1001850083C007C00612034C75100A7511001203CF
:1001950016AC82D006D0078C0C7510647511008ED4
:1001A500828F83C007C00612034C75100A751100B3
:1001B500120316AC82D006D0078C0B8E108F1190CF
:1001C50000FF12028375106475110012034CE5825D
:1001D5008583F064FFF50885F00902013F30B0031F
:1001E500020133120095050FE50F24015003750F29
:1001F50000E50E60E8E50F70E4150EAE0E7F0075A4
:10020500100A8F118E828F83C007C006120316ACA9
:1002150082D006D0078C0D75100A7511008E828F5D
:1002250083C007C00612034C75100A75110012032E
:1002350016AC82D006D0078C0C7510647511008E33
:10024500828F83C007C00612034C75100A75110012
:10025500120316AC82D006D0078C0B8E108F11902E
:1002650000FF12028375106475110012034CE582BC
:0E0275008583F064FFF50885F0090201E2229E
:0A0388003F065B4F666D7D077F6F37
:06005000E4787FF6D8FD04
:10002E007900E94400601B7A00900392780175A074
:10003E0000E493F2A308B8000205A0D9F4DAF27531
:02004E00A0FF11
:10028300E5828510F0A4C582C0F08511F0A4D0F0FA
:1002930025F0C5838510F0A42583F58322E5104559
:1002A3001160467A01E51025E0F510E5113340129F
:1002B300F511E5829510E583951140030A80E6C3A5
:1002C300E51113F511E51013F510C3E5829510F54B
:1002D300F0E58395114005F58385F082C3E511139D
:0A02E300F511E51013F510DAE12221
:100056007800E84400600A790175A000E4F309D845
:10006600FC7800E84400600C7900900001E4F0A3FD
:04007600D8FCD9FADF
:1002ED007A10E4FBFCE58225E0F582E58333F583A6
:1002FD00EB33FBEC33FCEB9510F5F0EC9511400670
:09030D00FCABF0438201DADD22B1
:0D002100758111120384E582600302001E48
:10031600C2D5E58330E70DD2D5E4C39582F582E4F4
:100326009583F583E51130E70BE4C39510F510E4EA
:100336009511F5111202A030D50BE4C39582F58212
:10034600E49583F58322C2D5E58330E70DD2D5E463
:10035600C39582F582E49583F583E51130E70DB206
:10036600D5E4C39510F510E49511F5111202ED30A0
:10037600D50BE4C39582F582E49583F583227582D5
:02038600002253
:00000001FF
